S013000041544D204D616368696E652E737265635A
S11300000C9472000C948F000C948F000C948F004D
S11300100C948F000C942F050C948F000C948F007B
S11300200C948F000C948F000C948F000C948F0010
S11300300C948F000C948F000C948F000C948F0000
S11300400C948F000C948F000C948F000C948F00F0
S11300500C948F000D051105150519051D052105C5
S1130060250507634236B79BD8A71A39685618AED8
S1130070BAAB558C1D3CB7CC5763BD6DEDFD753ED9
S1130080F6177231BF000000803F08000000BE92E6
S11300902449123EABAAAA2ABECDCCCC4C3E0000C9
S11300A00080BEABAAAAAA3E00000000BF00000068
S11300B0803F0000000000084178D3BB4387D11380
S11300C03D190E3CC3BD4282AD2B3E68EC8276BE28
S11300D0D98FE1A93E4C80EFFFBE01C4FF7F3F00F2
S11300E00000000011241FBECFE5D8E0DEBFCDBF65
S11300F011E0A0E6B0E0E8EEF3E102C005900D9255
S1130100A030B107D9F721E0A0E0B1E001C01D9211
S1130110AD32B207E1F70E9445030C94F2090C9446
S1130120000083E00E94EB0460E088E00E944C033E
S113013061E088E00E944E040E94F5020E940606D7
S113014082E00E94390508952F923F925F926F9248
S11301507F928F929F92AF92BF92CF92DF92EF9253
S1130160FF920F931F93CF93DF93CDB7DEB76F97B3
S11301700FB6F894DEBF0FBECDBF05E111E02CC071
S113018011920E171F07E1F781E690E00E9417060F
S113019085E091E00E942D06C82ED92E809115018C
S11301A0811116C080911401882391F091E3D70145
S11301B08D917D0180538A3028F08AE090E00E947E
S11301C00F0690E30E151F0591F7903309F08AC0CE
S11301D088E790E00E9417060F2EF5E0EF2EF1E07D
S11301E0FF2EF02DF701CCCF8D918193E217F30709
S11301F0D9F710E30F2EF7E07F2EF02D6E01B9E151
S1130200CB0ED11C7E01E2E1EE0EF11C5E01FDE19C
S1130210AF0EB11CD601E72D1D92EA95E9F7D7017F
S1130220E72D1D92EA95E9F783E890E00E9417060E
S1130230C6010E942D061C0189E990E00E94170660
S1130240C7010E942D06582E692E8D8D811116C06E
S11302508C8D882399F04E01F9E18F0E911C11E3E6
S1130260D4018D914D0180538A3028F08AE090E0CA
S11302700E940F0610E3A814B90491F7A52DB62D1A
S1130280F10191012C5F3F4F9D918191981310E3EF
S1130290E217F307C9F7103391F581EB90E00E9460
S11302A01706B8CF2D912193E817F907D9F740E144
S11302B06CE271E0CE0101960E942C02E7EAF1E6BD
S11302C03197F1F700C0000040E160E670E080E0A3
S11302D091E00E942C0287EA91E60197F1F700C0B1
S11302E0000013C0FE01319681E1DF011D928A9561
S11302F0E9F7AC2DBD2D9E012F5E3F4F75CFD10187
S1130300E0E0F1E084E091E0CDCF6F960FB6F89491
S1130310DEBF0FBECDBFDF91CF911F910F91FF9034
S1130320EF90DF90CF90BF90AF909F908F907F9091
S11303306F905F903F902F900895CF9340E16BE1D1
S113034071E080E00E94650244E066E171E080E1D2
S11303500E94650260E088E00E944E0460E08CE048
S11303600E944E0480911B018823A1F0C0E00E94EA
S11303702A05CF5F2FE18FEB92E02150804090401F
S1130380E1F700C00000EC2FF0E0E55EFE4F808155
S11303908111EDCF809116018823A1F0C0E00E9465
S11303A02A05CF5F2FE18FEB92E0215080409040EF
S11303B0E1F700C00000EC2FF0E0EA5EFE4F808120
S11303C08111EDCF80E00E942A0561E08CE00E945B
S11303D04E04CF9108950F931F93CF93DF9300D0D2
S11303E01F92CDB7DEB719821A821B8241E065E104
S11303F071E080E00E946502809115018F3F29F42D
S11304000E94A4000E949D011FC08CEB90E00E94FA
S11304101706CE0101960E942D068C018AE090E019
S11304200E940F06F8018081813319F40E949D0116
S113043006C0823321F40E94A4000E949D01F801A9
S113044080818153823008F70F900F900F90DF91D5
S1130450CF911F910F910895EF92FF920F931F93E5
S1130460CF938C017B01C42F0E946C05811118C0AD
S113047060E080EA0E947F05823091F4C7010E9407
S1130480B605893069F4CC2359F0F12CC8018F0DDD
S1130490911D0E94B605893009F4F394FC16B0F35B
S11304A00E94D005CF911F910F91FF90EF90089576
S11304B084EA86BF06B607FEFDCF089583B984E8B3
S11304C086BF06B607FEFDCF0895EF92FF921F93F5
S11304D0CF93DF93182F4423F1F0EB017B01E40E5B
S11304E0F11C0E94580280EA0E945E02812F0E9441
S11304F05E020E94580281EA0E945E0261E0CE011F
S11305000E94E0058D3011F40E94D0051F5F2196F2
S1130510CE15DF0531F7DF91CF911F91FF90EF905A
S11305200895CF93C82F60E08AE10E944E0460E0F2
S11305308BE10E944E04C4FB662760F984E10E94AB
S11305404E04C5FB662760F985E10E944E04C6FB94
S1130550662760F986E10E944E046C2F661F6627A9
S1130560661F87E10E944E0461E08CE10E944E0404
S113057089EF90E00197F1F700C0000060E08CE1A2
S11305800E944E0489EF90E00197F1F700C000004B
S11305906C2F617084E10E944E04C1FB662760F9F0
S11305A085E10E944E04C2FB662760F986E10E9441
S11305B04E04C3FB662760F987E10E944E0461E0A4
S11305C08CE10E944E0489EF90E00197F1F700C09E
S11305D0000060E08CE10E944E0489EF90E00197F6
S11305E0F1F700C00000CF91089560E084E00E941C
S11305F04C0360E085E00E944C0360E086E00E94CA
S11306004C0360E087E00E944C0360E08AE10E94B2
S11306104C0360E08BE10E944C0360E08CE10E949B
S11306204C0383ED90E30197F1F700C0000082E0F2
S11306300E94910289EF90E00197F1F700C0000059
S113064088E20E94910289EF90E00197F1F700C0DF
S113065000008CE00E94910289EF90E00197F1F78D
S113066000C0000081E00E94910283EF91E00197B5
S1130670F1F700C0000086E00E94910289EF90E04B
S11306800197F1F700C0000008950E9491000E94B4
S1130690EB0180E090E00895982F969596959695B5
S11306A0953008F0F9C08770613031F008F4A4C0C7
S11306B0623009F451C0EFC09130C1F028F092309B
S11306C039F19330B9F1E7C04AB321E030E0B90120
S11306D002C0660F771F8A95E2F7CB018095942FAD
S11306E098239ABB9BB389238BBBD5C047B321E026
S11306F030E0B90102C0660F771F8A95E2F7CB019B
S11307008095942F982397BB98B3892388BBC3C043
S113071044B321E030E0B90102C0660F771F8A9527
S1130720E2F7CB018095942F982394BB95B389234A
S113073085BBB1C041B321E030E0B90102C0660F0E
S1130740771F8A95E2F7CB018095942F982391BB6C
S113075092B3892382BB9FC09130C1F028F09230BC
S113076039F19330B9F197C04AB321E030E0B901CF
S113077002C0660F771F8A95E2F7CB01962F9095FA
S113078094239ABB9BB3892B8BBB85C047B321E0D1
S113079030E0B90102C0660F771F8A95E2F7CB01FA
S11307A0962F9095942397BB98B3892B88BB73C0DD
S11307B044B321E030E0B90102C0660F771F8A9587
S11307C0E2F7CB01962F9095942394BB95B3892B94
S11307D085BB61C041B321E030E0B90102C0660FBE
S11307E0771F8A95E2F7CB01962F9095942391BBBE
S11307F092B3892B82BB4FC09130C1F028F0923064
S113080039F19330B9F147C04BB321E030E0B9017D
S113081002C0660F771F8A95E2F7CB01962F909559
S113082094239BBB9AB3892B8ABB35C048B321E080
S113083030E0B90102C0660F771F8A95E2F7CB0159
S1130840962F9095942398BB97B3892B87BB23C08D
S113085045B321E030E0B90102C0660F771F8A95E5
S1130860E2F7CB01962F9095942395BB94B3892BF3
S113087084BB11C042B321E030E0B90102C0660F6D
S1130880771F8A95E2F7CB01962F9095942392BB1C
S113089091B3892B81BB089582E00895982F969592
S11308A096959695953008F08EC0633008F08DC00B
S11308B08770613009F040C09130A1F028F0923087
S11308C0F9F0933059F183C04BB321E030E0B90122
S11308D002C0660F771F8A95E2F7CB01842B8BBB8E
S11308E080E0089548B321E030E0B90102C0660F0A
S11308F0771F8A95E2F7CB01842B88BB80E00895AB
S113090045B321E030E0B90102C0660F771F8A9534
S1130910E2F7CB01842B85BB80E0089542B321E04C
S113092030E0B90102C0660F771F8A95E2F7CB0168
S1130930842B82BB80E00895611144C09130A9F0FA
S113094028F0923009F1933071F143C04BB321E0A8
S113095030E0B90102C0660F771F8A95E2F7CB0138
S1130960809584238BBB80E0089548B321E030E078
S1130970B90102C0660F771F8A95E2F7CB01809513
S1130980842388BB80E0089545B321E030E0B901B9
S113099002C0660F771F8A95E2F7CB018095842306
S11309A085BB80E0089542B321E030E0B90102C084
S11309B0660F771F8A95E2F7CB018095842382BB6B
S11309C080E00895089582E0089583E0089580E02A
S11309D0089580E00895CF93C82F60E08DE00E94D1
S11309E04C0360E08FE00E944C0360E08CE00E94C6
S11309F04C0362E08EE00E944C0361E08CE00E94B4
S1130A004E046E9A6C9A8C2F90E08730910500F515
S1130A10FC01E65DFF4F0C945E0668986998709A35
S1130A2017C068986998709813C0689A6998709A02
S1130A300FC0689A699870980BC06898699A709A00
S1130A4007C06898699A709803C0689A699A709800
S1130A50CF9108958FB9779BFECF8FB108951F92E0
S1130A600F920FB60F9211240F900FBE0F901F908C
S1130A70189511B8813049F028F0823049F083305C
S1130A8051F00BC00898099808C0089A099805C045
S1130A900898099A02C0089A099A61B1637070E0D3
S1130AA080E090E00E9474079B01AC0160E070E07C
S1130AB080E890E40E940E089B01AC010E94650648
S1130AC09B01AC0160E070E080E89FE40E94D106E5
S1130AD00E94430760B9089586B7806886BF86B7C9
S1130AE0806286BF86B7846086BF06B607FEFDCFE8
S1130AF091B1987F81E0983009F480E008956623ED
S1130B0019F06130A9F029C083B986B7806886BF1F
S1130B1086B7846086BF06B607FEFDCF81B1887FA5
S1130B208831E1F081B1887F8032D1F085E0089589
S1130B308F5F83B986B7806886BF86B7846086BFB7
S1130B4006B607FEFDCF81B1887F803459F081B1AC
S1130B50887F883449F088E00895089582E00895F4
S1130B6083E0089586E0089587E00895FC0180817C
S1130B7083B986B7806886BF86B7846086BF06B6A9
S1130B8007FEFDCF81B1887F883231F081B1887F43
S1130B90803321F08BE0089589E008958AE0089578
S1130BA086B78F7D86BF86B7806886BF86B780612B
S1130BB086BF86B7846086BF06B604FCFDCF089561
S1130BC0FC01662319F0613029F007C086B7806400
S1130BD086BF03C086B78F7B86BF96B7906896BFE3
S1130BE096B7946096BF06B607FEFDCF83B18083A7
S1130BF081B1887F803531F081B1887F883521F0DB
S1130C008EE008958CE008958DE0089510BC83E390
S1130C1089B98AB188618AB986E880BD08955D9BE7
S1130C20FECF8CB908955F9BFECF8CB108950F93CE
S1130C301F93CF93FC018081882359F08F01C0E07A
S1130C400E940F06CF5FF801EC0FF11D8081811126
S1130C50F7CFCF911F910F9108950F931F93CF93C7
S1130C608C01C0E001C0C92F0E941306F801EC0FEB
S1130C70F11D808391E09C0F8A3011F08D3099F73B
S1130C80CE5FF801EC0FF11D1082F80180818823FA
S1130C9049F0319680E090E00196AC012191211158
S1130CA0FBCF02C040E050E0400F511FFA013197E2
S1130CB01082C801CF911F910F910895EE0FFF1F6D
S1130CC00590F491E02D09945058BB27AA270E945F
S1130CD07C060C94D4070E94C60738F00E94CD0706
S1130CE020F039F49F3F19F426F40C94C3070EF452
S1130CF0E095E7FB0C94AF07E92F0E94E50758F352
S1130D00BA17620773078407950720F079F4A6F5EC
S1130D100C9407080EF4E0950B2EBA2FA02D0B01AE
S1130D20B90190010C01CA01A0011124FF27591B2C
S1130D3099F0593F50F4503E68F11A16F040A22F32
S1130D40232F342F4427585FF3CF469537952795A3
S1130D50A795F0405395C9F77EF41F16BA0B620BA2
S1130D60730B840BBAF09150A1F0FF0FBB1F661FE9
S1130D70771F881FC2F70EC0BA0F621F731F841F2C
S1130D8048F4879577956795B795F7959E3F08F052
S1130D90B0CF9395880F08F09927EE0F9795879514
S1130DA008950E94E5060C94D4070E94CD0758F0DC
S1130DB00E94C60740F029F45F3F29F00C94AF0766
S1130DC051110C9408080C94C3070E94E50768F3BA
S1130DD09923B1F3552391F3951B550BBB27AA27F0
S1130DE062177307840738F09F5F5F4F220F331F2A
S1130DF0441FAA1FA9F335D00E2E3AF0E0E832D0F2
S1130E0091505040E695001CCAF72BD0FE2F29D0F4
S1130E10660F771F881FBB1F261737074807AB07C6
S1130E20B0E809F0BB0B802DBF01FF2793585F4F3B
S1130E303AF09E3F510578F00C94AF070C940808E3
S1130E405F3FE4F3983ED4F3869577956795B7951D
S1130E50F7959F5FC9F7880F911D9695879597F928
S1130E600895E1E0660F771F881FBB1F62177307A1
S1130E708407BA0720F0621B730B840BBA0BEE1FB6
S1130E8088F7E09508950E94ED0788F09F5798F041
S1130E90B92F9927B751B0F0E1F0660F771F881F7B
S1130EA0991F1AF0BA95C9F714C0B13091F00E9495
S1130EB00708B1E008950C940708672F782F882756
S1130EC0B85F39F0B93FCCF3869577956795B395BC
S1130ED0D9F73EF490958095709561957F4F8F4F2B
S1130EE09F4F0895E89409C097FB3EF49095809530
S1130EF0709561957F4F8F4F9F4F9923A9F0F92FDC
S1130F0096E9BB279395F695879577956795B79559
S1130F10F111F8CFFAF4BB0F11F460FF1BC06F5F3F
S1130F207F4F8F4F9F4F16C0882311F096E911C051
S1130F30772321F09EE8872F762F05C0662371F072
S1130F4096E8862F70E060E02AF09A95660F771F86
S1130F50881FDAF7880F9695879597F9089597F97A
S1130F609F6780E870E060E008959F3F31F0915002
S1130F7020F4879577956795B795880F911D969579
S1130F80879597F908959FEF80EC089500240A94BB
S1130F901616170618060906089500240A94121650
S1130FA01306140605060895092E0394000C11F483
S1130FB0882352F0BB0F40F4BF2B11F460FF04C030
S1130FC06F5F7F4F8F4F9F4F089557FD9058440F89
S1130FD0551F59F05F3F71F04795880F97FB991F94
S1130FE061F09F3F79F08795089512161306140651
S1130FF0551FF2CF4695F1DF08C0161617061806DE
S1131000991FF1CF86957105610508940895E894B8
S1131010BB2766277727CB0197F90895FA01EE0FCE
S1131020FF1F309621053105A1F16115710561F4A9
S11310308038BFE39B0749F168949038810561F0DB
S11310408038BFEF9B0741F099234AF5FF3FE10544
S11310503105210519F1E8940894E795D901AA23EB
S113106029F4AB2FBE2FF85FD0F310C0FF5F70F4EC
S1131070A695E0F7F73950F019F0FF3A38F49F7766
S11310809F930DD00F9007FC9058089546F00C9450
S1131090C30760E070E080E89FE308954FE79F771F
S11310A05F934F933F932F930E9409092F913F9190
S11310B04F915F910E9485090C94660829F416F0FB
S11310C00C94AF070C9407080C94C3070E94ED0717
S11310D0A8F39638A0F707F80F92E8942BE33AEABE
S11310E048EB5FE70E949B090F920F920F924DB756
S11310F05EB70F920E945109E2E6F0E00E94980860
S11311004F915F91EF91FF91E595EE1FFF1F49F01D
S1131110FE57E0684427EE0F441FFA95E1F7419526
S1131120550B0E94CB080F9007FE0C94BF0808953E
S1131130DF93CF931F930F93FF92EF92DF927B0184
S11311408C01689406C0DA2EEF010E949809FE0112
S1131150E894A5912591359145915591A6F3EF0118
S11311600E947C06FE019701A801DA9469F7DF90DA
S1131170EF90FF900F911F91CF91DF9108959B0104
S1131180AC0160E070E080E89FE30C94D1060C941D
S1131190AF070C94B5070E94ED07D8F39923C9F360
S11311A0940F511DA3F39150504094F059F08823AB
S11311B032F0660F771F881F91505040C1F79E3F51
S11311C051052CF7880F911D9695879597F90895E9
S11311D05F3FACF0983E9CF0BB278695779567956A
S11311E0B79508F4B1609395C1F7BB0F58F711F4A4
S11311F060FFE8CF6F5F7F4F8F4F9F4FE3CF0C941B
S1131200080816F00C94B5070C94C30768940C9462
S1131210AF070E94ED07A8F39923C1F3AEF3DF9360
S1131220CF931F930F93FF92C92FDD2788232AF0B2
S11312302197660F771F881FDAF720E030E040E837
S11312405FEB9FE3883920F0803E38F021968F775A
S11312500E946506EAE8F0E004C00E946506E7EB38
S1131260F0E00E9498088B01BE01EC01FB2E6F5741
S113127071097595771F880B990B0E94740728E1F3
S113128032E741E35FE30E949809AF2D9801AE0174
S1131290FF900F911F91CF91DF910E947C060C94D7
S11312A0D407FA01DC01AA0FBB1F9B01AC01BF5795
S11312B028F4222733274427507820C0B75190F4CC
S11312C0AB2F0024469537952795011CA395D2F39F
S11312D0002071F0220F331F441FB395DAF30ED0B0
S11312E00C94640661307105A0E88A07B94630F4AD
S11312F09B01AC016627772788279078309621F0E8
S1131300208331834283538308950E9498090C9467
S1131310D4070E94C60738F00E94CD0720F0952319
S113132011F00C94AF070C94C30711240C94080813
S11313300E94E50770F3959FC1F3950F50E0551F88
S1131340629FF001729FBB27F00DB11D639FAA2716
S1131350F00DB11DAA1F649F6627B00DA11D661F65
S1131360829F2227B00DA11D621F739FB00DA11D86
S1131370621F839FA00D611D221F749F3327A00D40
S1131380611D231F849F600D211D822F762F6A2FDC
S113139011249F5750409AF0F1F088234AF0EE0F41
S11313A0FF1FBB1F661F771F881F91505040A9F76E
S11313B09E3F510580F00C94AF070C9408085F3FE2
S11313C0E4F3983ED4F3869577956795B795F795AA
S11313D0E7959F5FC1F7FE2B880F911D9695879522
S10B13E097F90895F894FFCF7A
S11313E810506C6561736520456E746572204361A5
S11313F872642050414E3A0057726F6E6720504114
S11314084E2000506C6561736520456E74657220CA
S11314184E65772050494E3A00506C6561736520DB
S1131428436F6E6669726D204E65772050494E3A57
S11314380057726F6E672050494E2000506C6561EA
S11314487365207072657373203120666F7220652E
S11314586E746572696E672075736572206D6F644A
S11314686520616E64203220666F722070726F6727
S113147872616D6D696E67206D6F6465203A000056
S9030000FC
